{
	"data": {
		"bytecode": {
			"linkReferences": {},
			"object": "60a0346100ea57601f610e4538819003918201601f19168301916001600160401b038311848410176100ee5780849260409485528339810103126100ea5761004681610102565b906001600160a01b039061005c90602001610102565b169081156100d7575f80546001600160a01b031981168417825560405193916001600160a01b03909116907f8be0079c531659141344cd1fd0a4f28419497f9722a3daafe3b4186f6b6457e09080a3600180556001600160a01b0316608052610d2e908161011782396080518181816103590152610b130152f35b631e4fbdf760e01b5f525f60045260245ffd5b5f80fd5b634e487b7160e01b5f52604160045260245ffd5b51906001600160a01b03821682036100ea5756fe6080806040526004361015610012575f80fd5b5f905f3560e01c9081630247f43714610bb257508063231534d714610b7a5780633113e93c14610b425780633e413bee14610afe5780633f4ba83a14610a925780635b8c933714610a4b5780635c975abb14610a2757806370a48572146109f9578063715018a6146109a2578063727b7acf146109195780638456cb59146108b95780638da5cb5b146108925780639061a57f1461084e578063958e7387146101ed578063d34ac1c3146101565763f2fde38b146100ce575f80fd5b34610153576020366003190112610153576100e7610be6565b6100ef610cb5565b6001600160a01b0316801561013f5781546001600160a01b03198116821783556001600160a01b03167f8be0079c531659141344cd1fd0a4f28419497f9722a3daafe3b4186f6b6457e08380a380f35b631e4fbdf760e01b82526004829052602482fd5b80fd5b503461015357608036600319011261015357610170610be6565b7f01d994bbbeefa5b75b8ca7fdc56d35809c6916ffbf520f22ccb028e4740f198d606060243560443593606435906101a6610cb5565b60018060a01b03169485875260036020528260408820558587526004602052806040882055858752600560205281604088205560405192835260208301526040820152a280f35b503461067e5761010036600319011261067e57610208610be6565b90602435916064359060ff821680920361067e5760c43567ffffffffffffffff811161067e5761023c903690600401610bfc565b949060e43567ffffffffffffffff811161067e5761025e903690600401610bfc565b91610267610cb5565b61026f610cdb565b60026001541461083f5760026001556201518042049061028e84610c78565b61029b6040519182610c2a565b8481526020810190368686011161067e57858583375f60208783010152519020956040966004602089516102cf8b82610c2a565b82815201636c696b6560e01b81522081145f1461077557506001600160a01b0381165f8181526004602052889020541561073b575f526004602052865f20545b86116106f7576001600160a01b03165f81815260036020528790205490979080156106bd57885f526002602052875f20845f5260205261035287895f2054610c94565b11610682577f00000000000000000000000000000000000000000000000000000000000000006001600160a01b031690813b1561067e5787519063d505accf60e01b82528960048301523060248301528760448301526044356064830152608482015260843560a482015260a43560c48201525f8160e48183865af180156106745761065f575b5086516323b872dd60e01b81528860048201523060248201528660448201526020816064818d865af1908115610655578a91610636575b50156105fb5760208991604489518094819363095ea7b360e01b8352736131b5fae19ea4f9d964eac0408e4408b66337b560048401528b60248401525af19081156105f15789916105c2575b5015610585578789819a928293895192839283378101838152039082736131b5fae19ea4f9d964eac0408e4408b66337b55af13d1561057d573d906104a082610c78565b916104ad88519384610c2a565b82523d89602084013e5b1561053f575091807fdb2f68abe9707696a4a1b20d3ad43e58cbbc37bf47b36c8b0b70e4a0291a30c6959492608094888a526002602052868a20908a52602052858920610505858254610c94565b90556060865196879586528a6020870152850152816060850152848401378181018301879052601f01601f19168101030190a36001805580f35b604488916020885193849262461bcd60e51b84528260048501528051928391826024870152018585015e828201840152601f01601f19168101030190fd5b6060906104b7565b855162461bcd60e51b8152602060048201526016602482015275149bdd5d195c88185c1c1c9bdd985b0819985a5b195960521b6044820152606490fd5b6105e4915060203d6020116105ea575b6105dc8183610c2a565b810190610c60565b5f61045c565b503d6105d2565b87513d8b823e3d90fd5b865162461bcd60e51b81526020600482015260146024820152731554d110c81d1c985b9cd9995c8819985a5b195960621b6044820152606490fd5b61064f915060203d6020116105ea576105dc8183610c2a565b5f610410565b88513d8c823e3d90fd5b61066c9199505f90610c2a565b5f975f6103d9565b88513d5f823e3d90fd5b5f80fd5b865162461bcd60e51b815260206004820152601460248201527311185a5b1e481b1a5b5a5d08195e18d95959195960621b6044820152606490fd5b875162461bcd60e51b815260206004820152601360248201527211185a5b1e481b1a5b5a5d081b9bdd081cd95d606a1b6044820152606490fd5b865162461bcd60e51b815260206004820152601b60248201527f416d6f756e74206578636565647320616374696f6e206c696d697400000000006044820152606490fd5b875162461bcd60e51b8152602060048201526013602482015272131a5ad948185b5bdd5b9d081b9bdd081cd95d606a1b6044820152606490fd5b6006602089516107858b82610c2a565b82815201651c9958d85cdd60d21b815220145f14610805576001600160a01b0381165f818152600560205288902054156107c9575f526005602052865f205461030f565b875162461bcd60e51b8152602060048201526015602482015274149958d85cdd08185b5bdd5b9d081b9bdd081cd95d605a1b6044820152606490fd5b865162461bcd60e51b8152602060048201526013602482015272496e76616c696420616374696f6e207479706560681b6044820152606490fd5b633ee5aeb560e01b5f5260045ffd5b3461067e57604036600319011261067e576001600160a01b0361086f610be6565b165f52600260205260405f206024355f52602052602060405f2054604051908152f35b3461067e575f36600319011261067e575f546040516001600160a01b039091168152602090f35b3461067e575f36600319011261067e576108d1610cb5565b6108d9610cdb565b5f805460ff60a01b1916600160a01b1790556040513381527f62e78cea01bee320cd4e420270b5ea74000d11b0c9f74754ebdbfc544b05a25890602090a1005b3461067e57604036600319011261067e57610932610be6565b61093a610cb5565b5f805460405163a9059cbb60e01b81526001600160a01b0391821660048201526024803590820152926020928492604492849291165af180156109975761097d57005b6109959060203d6020116105ea576105dc8183610c2a565b005b6040513d5f823e3d90fd5b3461067e575f36600319011261067e576109ba610cb5565b5f80546001600160a01b0319811682556001600160a01b03167f8be0079c531659141344cd1fd0a4f28419497f9722a3daafe3b4186f6b6457e08280a3005b3461067e575f36600319011261067e576020604051736131b5fae19ea4f9d964eac0408e4408b66337b58152f35b3461067e575f36600319011261067e57602060ff5f5460a01c166040519015158152f35b3461067e57602036600319011261067e576001600160a01b03610a6c610be6565b165f52600260205260405f206201518042045f52602052602060405f2054604051908152f35b3461067e575f36600319011261067e57610aaa610cb5565b5f5460ff8160a01c1615610aef5760ff60a01b19165f556040513381527f5db9ee0a495bf2e6ff9c91a7834c1ba4fdd244a5e8aa4e537bd38aeae4b073aa90602090a1005b638dfc202b60e01b5f5260045ffd5b3461067e575f36600319011261067e576040517f00000000000000000000000000000000000000000000000000000000000000006001600160a01b03168152602090f35b3461067e57602036600319011261067e576001600160a01b03610b63610be6565b165f526003602052602060405f2054604051908152f35b3461067e57602036600319011261067e576001600160a01b03610b9b610be6565b165f526004602052602060405f2054604051908152f35b3461067e57602036600319011261067e576020906001600160a01b03610bd6610be6565b165f526005825260405f20548152f35b600435906001600160a01b038216820361067e57565b9181601f8401121561067e5782359167ffffffffffffffff831161067e576020838186019501011161067e57565b90601f8019910116810190811067ffffffffffffffff821117610c4c57604052565b634e487b7160e01b5f52604160045260245ffd5b9081602091031261067e5751801515810361067e5790565b67ffffffffffffffff8111610c4c57601f01601f191660200190565b91908201809211610ca157565b634e487b7160e01b5f52601160045260245ffd5b5f546001600160a01b03163303610cc857565b63118cdaa760e01b5f523360045260245ffd5b60ff5f5460a01c16610ce957565b63d93c066560e01b5f5260045ffdfea2646970667358221220fc579b0246f5989bcdda6c4e3edfecd8e9f88f82cc1506c280a20f0c55c4d45264736f6c634300081e0033",
			"opcodes": "PUSH1 0xA0 CALLVALUE PUSH2 0xEA JUMPI PUSH1 0x1F PUSH2 0xE45 CODESIZE DUP2 SWAP1 SUB SWAP2 DUP3 ADD PUSH1 0x1F NOT AND DUP4 ADD SWAP2 PUSH1 0x1 PUSH1 0x1 PUSH1 0x40 SHL SUB DUP4 GT DUP5 DUP5 LT OR PUSH2 0xEE JUMPI DUP1 DUP5 SWAP3 PUSH1 0x40 SWAP5 DUP6 MSTORE DUP4 CODECOPY DUP2 ADD SUB SLT PUSH2 0xEA JUMPI PUSH2 0x46 DUP2 PUSH2 0x102 JUMP JUMPDEST SWAP1 PUSH1 0x1 PUSH1 0x1 PUSH1 0xA0 SHL SUB SWAP1 PUSH2 0x5C SWAP1 PUSH1 0x20 ADD PUSH2 0x102 JUMP JUMPDEST AND SWAP1 DUP2 ISZERO PUSH2 0xD7 JUMPI PUSH0 DUP1 SLOAD PUSH1 0x1 PUSH1 0x1 PUSH1 0xA0 SHL SUB NOT DUP2 AND DUP5 OR DUP3 SSTORE PUSH1 0x40 MLOAD SWAP4 SWAP2 PUSH1 0x1 PUSH1 0x1 PUSH1 0xA0 SHL SUB SWAP1 SWAP2 AND SWAP1 PUSH32 0x8BE0079C531659141344CD1FD0A4F28419497F9722A3DAAFE3B4186F6B6457E0 SWAP1 DUP1 LOG3 PUSH1 0x1 DUP1 SSTORE PUSH1 0x1 PUSH1 0x1 PUSH1 0xA0 SHL SUB AND PUSH1 0x80 MSTORE PUSH2 0xD2E SWAP1 DUP2 PUSH2 0x117 DUP3 CODECOPY PUSH1 0x80 MLOAD DUP2 DUP2 DUP2 PUSH2 0x359 ADD MSTORE PUSH2 0xB13 ADD MSTORE RETURN JUMPDEST PUSH4 0x1E4FBDF7 PUSH1 0xE0 SHL PUSH0 MSTORE PUSH0 PUSH1 0x4 MSTORE PUSH1 0x24 PUSH0 REVERT JUMPDEST PUSH0 DUP1 REVERT JUMPDEST PUSH4 0x4E487B71 PUSH1 0xE0 SHL PUSH0 MSTORE PUSH1 0x41 PUSH1 0x4 MSTORE PUSH1 0x24 PUSH0 REVERT JUMPDEST MLOAD SWAP1 PUSH1 0x1 PUSH1 0x1 PUSH1 0xA0 SHL SUB DUP3 AND DUP3 SUB PUSH2 0xEA JUMPI JUMP INVALID PUSH1 0x80 DUP1 PUSH1 0x40 MSTORE PUSH1 0x4 CALLDATASIZE LT ISZERO PUSH2 0x12 JUMPI PUSH0 DUP1 REVERT JUMPDEST PUSH0 SWAP1 PUSH0 CALLDATALOAD PUSH1 0xE0 SHR SWAP1 DUP2 PUSH4 0x247F437 EQ PUSH2 0xBB2 JUMPI POP DUP1 PUSH4 0x231534D7 EQ PUSH2 0xB7A JUMPI DUP1 PUSH4 0x3113E93C EQ PUSH2 0xB42 JUMPI DUP1 PUSH4 0x3E413BEE EQ PUSH2 0xAFE JUMPI DUP1 PUSH4 0x3F4BA83A EQ PUSH2 0xA92 JUMPI DUP1 PUSH4 0x5B8C9337 EQ PUSH2 0xA4B JUMPI DUP1 PUSH4 0x5C975ABB EQ PUSH2 0xA27 JUMPI DUP1 PUSH4 0x70A48572 EQ PUSH2 0x9F9 JUMPI DUP1 PUSH4 0x715018A6 EQ PUSH2 0x9A2 JUMPI DUP1 PUSH4 0x727B7ACF EQ PUSH2 0x919 JUMPI DUP1 PUSH4 0x8456CB59 EQ PUSH2 0x8B9 JUMPI DUP1 PUSH4 0x8DA5CB5B EQ PUSH2 0x892 JUMPI DUP1 PUSH4 0x9061A57F EQ PUSH2 0x84E JUMPI DUP1 PUSH4 0x958E7387 EQ PUSH2 0x1ED JUMPI DUP1 PUSH4 0xD34AC1C3 EQ PUSH2 0x156 JUMPI PUSH4 0xF2FDE38B EQ PUSH2 0xCE JUMPI PUSH0 DUP1 REVERT JUMPDEST CALLVALUE PUSH2 0x153 JUMPI PUSH1 0x20 CALLDATASIZE PUSH1 0x3 NOT ADD SLT PUSH2 0x153 JUMPI PUSH2 0xE7 PUSH2 0xBE6 JUMP JUMPDEST PUSH2 0xEF PUSH2 0xCB5 JUMP JUMPDEST PUSH1 0x1 PUSH1 0x1 PUSH1 0xA0 SHL SUB AND DUP1 ISZERO PUSH2 0x13F JUMPI DUP2 SLOAD PUSH1 0x1 PUSH1 0x1 PUSH1 0xA0 SHL SUB NOT DUP2 AND DUP3 OR DUP4 SSTORE PUSH1 0x1 PUSH1 0x1 PUSH1 0xA0 SHL SUB AND PUSH32 0x8BE0079C531659141344CD1FD0A4F28419497F9722A3DAAFE3B4186F6B6457E0 DUP4 DUP1 LOG3 DUP1 RETURN JUMPDEST PUSH4 0x1E4FBDF7 PUSH1 0xE0 SHL DUP3 MSTORE PUSH1 0x4 DUP3 SWAP1 MSTORE PUSH1 0x24 DUP3 REVERT JUMPDEST DUP1 REVERT JUMPDEST POP CALLVALUE PUSH2 0x153 JUMPI PUSH1 0x80 CALLDATASIZE PUSH1 0x3 NOT ADD SLT PUSH2 0x153 JUMPI PUSH2 0x170 PUSH2 0xBE6 JUMP JUMPDEST PUSH32 0x1D994BBBEEFA5B75B8CA7FDC56D35809C6916FFBF520F22CCB028E4740F198D PUSH1 0x60 PUSH1 0x24 CALLDATALOAD PUSH1 0x44 CALLDATALOAD SWAP4 PUSH1 0x64 CALLDATALOAD SWAP1 PUSH2 0x1A6 PUSH2 0xCB5 JUMP JUMPDEST PUSH1 0x1 DUP1 PUSH1 0xA0 SHL SUB AND SWAP5 DUP6 DUP8 MSTORE PUSH1 0x3 PUSH1 0x20 MSTORE DUP3 PUSH1 0x40 DUP9 KECCAK256 SSTORE DUP6 DUP8 MSTORE PUSH1 0x4 PUSH1 0x20 MSTORE DUP1 PUSH1 0x40 DUP9 KECCAK256 SSTORE DUP6 DUP8 MSTORE PUSH1 0x5 PUSH1 0x20 MSTORE DUP2 PUSH1 0x40 DUP9 KECCAK256 SSTORE PUSH1 0x40 MLOAD SWAP3 DUP4 MSTORE PUSH1 0x20 DUP4 ADD MSTORE PUSH1 0x40 DUP3 ADD MSTORE LOG2 DUP1 RETURN JUMPDEST POP CALLVALUE PUSH2 0x67E JUMPI PUSH2 0x100 CALLDATASIZE PUSH1 0x3 NOT ADD SLT PUSH2 0x67E JUMPI PUSH2 0x208 PUSH2 0xBE6 JUMP JUMPDEST SWAP1 PUSH1 0x24 CALLDATALOAD SWAP2 PUSH1 0x64 CALLDATALOAD SWAP1 PUSH1 0xFF DUP3 AND DUP1 SWAP3 SUB PUSH2 0x67E JUMPI PUSH1 0xC4 CALLDATALOAD PUSH8 0xFFFFFFFFFFFFFFFF DUP2 GT PUSH2 0x67E JUMPI PUSH2 0x23C SWAP1 CALLDATASIZE SWAP1 PUSH1 0x4 ADD PUSH2 0xBFC JUMP JUMPDEST SWAP5 SWAP1 PUSH1 0xE4 CALLDATALOAD PUSH8 0xFFFFFFFFFFFFFFFF DUP2 GT PUSH2 0x67E JUMPI PUSH2 0x25E SWAP1 CALLDATASIZE SWAP1 PUSH1 0x4 ADD PUSH2 0xBFC JUMP JUMPDEST SWAP2 PUSH2 0x267 PUSH2 0xCB5 JUMP JUMPDEST PUSH2 0x26F PUSH2 0xCDB JUMP JUMPDEST PUSH1 0x2 PUSH1 0x1 SLOAD EQ PUSH2 0x83F JUMPI PUSH1 0x2 PUSH1 0x1 SSTORE PUSH3 0x15180 TIMESTAMP DIV SWAP1 PUSH2 0x28E DUP5 PUSH2 0xC78 JUMP JUMPDEST PUSH2 0x29B PUSH1 0x40 MLOAD SWAP2 DUP3 PUSH2 0xC2A JUMP JUMPDEST DUP5 DUP2 MSTORE PUSH1 0x20 DUP2 ADD SWAP1 CALLDATASIZE DUP7 DUP7 ADD GT PUSH2 0x67E JUMPI DUP6 DUP6 DUP4 CALLDATACOPY PUSH0 PUSH1 0x20 DUP8 DUP4 ADD ADD MSTORE MLOAD SWAP1 KECCAK256 SWAP6 PUSH1 0x40 SWAP7 PUSH1 0x4 PUSH1 0x20 DUP10 MLOAD PUSH2 0x2CF DUP12 DUP3 PUSH2 0xC2A JUMP JUMPDEST DUP3 DUP2 MSTORE ADD PUSH4 0x6C696B65 PUSH1 0xE0 SHL DUP2 MSTORE KECCAK256 DUP2 EQ PUSH0 EQ PUSH2 0x775 JUMPI POP PUSH1 0x1 PUSH1 0x1 PUSH1 0xA0 SHL SUB DUP2 AND PUSH0 DUP2 DUP2 MSTORE PUSH1 0x4 PUSH1 0x20 MSTORE DUP9 SWAP1 KECCAK256 SLOAD ISZERO PUSH2 0x73B JUMPI PUSH0 MSTORE PUSH1 0x4 PUSH1 0x20 MSTORE DUP7 PUSH0 KECCAK256 SLOAD JUMPDEST DUP7 GT PUSH2 0x6F7 JUMPI PUSH1 0x1 PUSH1 0x1 PUSH1 0xA0 SHL SUB AND PUSH0 DUP2 DUP2 MSTORE PUSH1 0x3 PUSH1 0x20 MSTORE DUP8 SWAP1 KECCAK256 SLOAD SWAP1 SWAP8 SWAP1 DUP1 ISZERO PUSH2 0x6BD JUMPI DUP9 PUSH0 MSTORE PUSH1 0x2 PUSH1 0x20 MSTORE DUP8 PUSH0 KECCAK256 DUP5 PUSH0 MSTORE PUSH1 0x20 MSTORE PUSH2 0x352 DUP8 DUP10 PUSH0 KECCAK256 SLOAD PUSH2 0xC94 JUMP JUMPDEST GT PUSH2 0x682 JUMPI PUSH32 0x0 PUSH1 0x1 PUSH1 0x1 PUSH1 0xA0 SHL SUB AND SWAP1 DUP2 EXTCODESIZE ISZERO PUSH2 0x67E JUMPI DUP8 MLOAD SWAP1 PUSH4 0xD505ACCF PUSH1 0xE0 SHL DUP3 MSTORE DUP10 PUSH1 0x4 DUP4 ADD MSTORE ADDRESS PUSH1 0x24 DUP4 ADD MSTORE DUP8 PUSH1 0x44 DUP4 ADD MSTORE PUSH1 0x44 CALLDATALOAD PUSH1 0x64 DUP4 ADD MSTORE PUSH1 0x84 DUP3 ADD MSTORE PUSH1 0x84 CALLDATALOAD PUSH1 0xA4 DUP3 ADD MSTORE PUSH1 0xA4 CALLDATALOAD PUSH1 0xC4 DUP3 ADD MSTORE PUSH0 DUP2 PUSH1 0xE4 DUP2 DUP4 DUP7 GAS CALL DUP1 ISZERO PUSH2 0x674 JUMPI PUSH2 0x65F JUMPI JUMPDEST POP DUP7 MLOAD PUSH4 0x23B872DD PUSH1 0xE0 SHL DUP2 MSTORE DUP9 PUSH1 0x4 DUP3 ADD MSTORE ADDRESS PUSH1 0x24 DUP3 ADD MSTORE DUP7 PUSH1 0x44 DUP3 ADD MSTORE PUSH1 0x20 DUP2 PUSH1 0x64 DUP2 DUP14 DUP7 GAS CALL SWAP1 DUP2 ISZERO PUSH2 0x655 JUMPI DUP11 SWAP2 PUSH2 0x636 JUMPI JUMPDEST POP ISZERO PUSH2 0x5FB JUMPI PUSH1 0x20 DUP10 SWAP2 PUSH1 0x44 DUP10 MLOAD DUP1 SWAP5 DUP2 SWAP4 PUSH4 0x95EA7B3 PUSH1 0xE0 SHL DUP4 MSTORE PUSH20 0x6131B5FAE19EA4F9D964EAC0408E4408B66337B5 PUSH1 0x4 DUP5 ADD MSTORE DUP12 PUSH1 0x24 DUP5 ADD MSTORE GAS CALL SWAP1 DUP2 ISZERO PUSH2 0x5F1 JUMPI DUP10 SWAP2 PUSH2 0x5C2 JUMPI JUMPDEST POP ISZERO PUSH2 0x585 JUMPI DUP8 DUP10 DUP2 SWAP11 SWAP3 DUP3 SWAP4 DUP10 MLOAD SWAP3 DUP4 SWAP3 DUP4 CALLDATACOPY DUP2 ADD DUP4 DUP2 MSTORE SUB SWAP1 DUP3 PUSH20 0x6131B5FAE19EA4F9D964EAC0408E4408B66337B5 GAS CALL RETURNDATASIZE ISZERO PUSH2 0x57D JUMPI RETURNDATASIZE SWAP1 PUSH2 0x4A0 DUP3 PUSH2 0xC78 JUMP JUMPDEST SWAP2 PUSH2 0x4AD DUP9 MLOAD SWAP4 DUP5 PUSH2 0xC2A JUMP JUMPDEST DUP3 MSTORE RETURNDATASIZE DUP10 PUSH1 0x20 DUP5 ADD RETURNDATACOPY JUMPDEST ISZERO PUSH2 0x53F JUMPI POP SWAP2 DUP1 PUSH32 0xDB2F68ABE9707696A4A1B20D3AD43E58CBBC37BF47B36C8B0B70E4A0291A30C6 SWAP6 SWAP5 SWAP3 PUSH1 0x80 SWAP5 DUP9 DUP11 MSTORE PUSH1 0x2 PUSH1 0x20 MSTORE DUP7 DUP11 KECCAK256 SWAP1 DUP11 MSTORE PUSH1 0x20 MSTORE DUP6 DUP10 KECCAK256 PUSH2 0x505 DUP6 DUP3 SLOAD PUSH2 0xC94 JUMP JUMPDEST SWAP1 SSTORE PUSH1 0x60 DUP7 MLOAD SWAP7 DUP8 SWAP6 DUP7 MSTORE DUP11 PUSH1 0x20 DUP8 ADD MSTORE DUP6 ADD MSTORE DUP2 PUSH1 0x60 DUP6 ADD MSTORE DUP5 DUP5 ADD CALLDATACOPY DUP2 DUP2 ADD DUP4 ADD DUP8 SWAP1 MSTORE PUSH1 0x1F ADD PUSH1 0x1F NOT AND DUP2 ADD SUB ADD SWAP1 LOG3 PUSH1 0x1 DUP1 SSTORE DUP1 RETURN JUMPDEST PUSH1 0x44 DUP9 SWAP2 PUSH1 0x20 DUP9 MLOAD SWAP4 DUP5 SWAP3 PUSH3 0x461BCD PUSH1 0xE5 SHL DUP5 MSTORE DUP3 PUSH1 0x4 DUP6 ADD MSTORE DUP1 MLOAD SWAP3 DUP4 SWAP2 DUP3 PUSH1 0x24 DUP8 ADD MSTORE ADD DUP6 DUP6 ADD MCOPY DUP3 DUP3 ADD DUP5 ADD MSTORE PUSH1 0x1F ADD PUSH1 0x1F NOT AND DUP2 ADD SUB ADD SWAP1 REVERT JUMPDEST PUSH1 0x60 SWAP1 PUSH2 0x4B7 JUMP JUMPDEST DUP6 MLOAD PUSH3 0x461BCD PUSH1 0xE5 SHL DUP2 MSTORE PUSH1 0x20 PUSH1 0x4 DUP3 ADD MSTORE PUSH1 0x16 PUSH1 0x24 DUP3 ADD MSTORE PUSH22 0x149BDD5D195C88185C1C1C9BDD985B0819985A5B1959 PUSH1 0x52 SHL PUSH1 0x44 DUP3 ADD MSTORE PUSH1 0x64 SWAP1 REVERT JUMPDEST PUSH2 0x5E4 SWAP2 POP PUSH1 0x20 RETURNDATASIZE PUSH1 0x20 GT PUSH2 0x5EA JUMPI JUMPDEST PUSH2 0x5DC DUP2 DUP4 PUSH2 0xC2A JUMP JUMPDEST DUP2 ADD SWAP1 PUSH2 0xC60 JUMP JUMPDEST PUSH0 PUSH2 0x45C JUMP JUMPDEST POP RETURNDATASIZE PUSH2 0x5D2 JUMP JUMPDEST DUP8 MLOAD RETURNDATASIZE DUP12 DUP3 RETURNDATACOPY RETURNDATASIZE SWAP1 REVERT JUMPDEST DUP7 MLOAD PUSH3 0x461BCD PUSH1 0xE5 SHL DUP2 MSTORE PUSH1 0x20 PUSH1 0x4 DUP3 ADD MSTORE PUSH1 0x14 PUSH1 0x24 DUP3 ADD MSTORE PUSH20 0x1554D110C81D1C985B9CD9995C8819985A5B1959 PUSH1 0x62 SHL PUSH1 0x44 DUP3 ADD MSTORE PUSH1 0x64 SWAP1 REVERT JUMPDEST PUSH2 0x64F SWAP2 POP PUSH1 0x20 RETURNDATASIZE PUSH1 0x20 GT PUSH2 0x5EA JUMPI PUSH2 0x5DC DUP2 DUP4 PUSH2 0xC2A JUMP JUMPDEST PUSH0 PUSH2 0x410 JUMP JUMPDEST DUP9 MLOAD RETURNDATASIZE DUP13 DUP3 RETURNDATACOPY RETURNDATASIZE SWAP1 REVERT JUMPDEST PUSH2 0x66C SWAP2 SWAP10 POP PUSH0 SWAP1 PUSH2 0xC2A JUMP JUMPDEST PUSH0 SWAP8 PUSH0 PUSH2 0x3D9 JUMP JUMPDEST DUP9 MLOAD RETURNDATASIZE PUSH0 DUP3 RETURNDATACOPY RETURNDATASIZE SWAP1 REVERT JUMPDEST PUSH0 DUP1 REVERT JUMPDEST DUP7 MLOAD PUSH3 0x461BCD PUSH1 0xE5 SHL DUP2 MSTORE PUSH1 0x20 PUSH1 0x4 DUP3 ADD MSTORE PUSH1 0x14 PUSH1 0x24 DUP3 ADD MSTORE PUSH20 0x11185A5B1E481B1A5B5A5D08195E18D959591959 PUSH1 0x62 SHL PUSH1 0x44 DUP3 ADD MSTORE PUSH1 0x64 SWAP1 REVERT JUMPDEST DUP8 MLOAD PUSH3 0x461BCD PUSH1 0xE5 SHL DUP2 MSTORE PUSH1 0x20 PUSH1 0x4 DUP3 ADD MSTORE PUSH1 0x13 PUSH1 0x24 DUP3 ADD MSTORE PUSH19 0x11185A5B1E481B1A5B5A5D081B9BDD081CD95D PUSH1 0x6A SHL PUSH1 0x44 DUP3 ADD MSTORE PUSH1 0x64 SWAP1 REVERT JUMPDEST DUP7 MLOAD PUSH3 0x461BCD PUSH1 0xE5 SHL DUP2 MSTORE PUSH1 0x20 PUSH1 0x4 DUP3 ADD MSTORE PUSH1 0x1B PUSH1 0x24 DUP3 ADD MSTORE PUSH32 0x416D6F756E74206578636565647320616374696F6E206C696D69740000000000 PUSH1 0x44 DUP3 ADD MSTORE PUSH1 0x64 SWAP1 REVERT JUMPDEST DUP8 MLOAD PUSH3 0x461BCD PUSH1 0xE5 SHL DUP2 MSTORE PUSH1 0x20 PUSH1 0x4 DUP3 ADD MSTORE PUSH1 0x13 PUSH1 0x24 DUP3 ADD MSTORE PUSH19 0x131A5AD948185B5BDD5B9D081B9BDD081CD95D PUSH1 0x6A SHL PUSH1 0x44 DUP3 ADD MSTORE PUSH1 0x64 SWAP1 REVERT JUMPDEST PUSH1 0x6 PUSH1 0x20 DUP10 MLOAD PUSH2 0x785 DUP12 DUP3 PUSH2 0xC2A JUMP JUMPDEST DUP3 DUP2 MSTORE ADD PUSH6 0x1C9958D85CDD PUSH1 0xD2 SHL DUP2 MSTORE KECCAK256 EQ PUSH0 EQ PUSH2 0x805 JUMPI PUSH1 0x1 PUSH1 0x1 PUSH1 0xA0 SHL SUB DUP2 AND PUSH0 DUP2 DUP2 MSTORE PUSH1 0x5 PUSH1 0x20 MSTORE DUP9 SWAP1 KECCAK256 SLOAD ISZERO PUSH2 0x7C9 JUMPI PUSH0 MSTORE PUSH1 0x5 PUSH1 0x20 MSTORE DUP7 PUSH0 KECCAK256 SLOAD PUSH2 0x30F JUMP JUMPDEST DUP8 MLOAD PUSH3 0x461BCD PUSH1 0xE5 SHL DUP2 MSTORE PUSH1 0x20 PUSH1 0x4 DUP3 ADD MSTORE PUSH1 0x15 PUSH1 0x24 DUP3 ADD MSTORE PUSH21 0x149958D85CDD08185B5BDD5B9D081B9BDD081CD95D PUSH1 0x5A SHL PUSH1 0x44 DUP3 ADD MSTORE PUSH1 0x64 SWAP1 REVERT JUMPDEST DUP7 MLOAD PUSH3 0x461BCD PUSH1 0xE5 SHL DUP2 MSTORE PUSH1 0x20 PUSH1 0x4 DUP3 ADD MSTORE PUSH1 0x13 PUSH1 0x24 DUP3 ADD MSTORE PUSH19 0x496E76616C696420616374696F6E2074797065 PUSH1 0x68 SHL PUSH1 0x44 DUP3 ADD MSTORE PUSH1 0x64 SWAP1 REVERT JUMPDEST PUSH4 0x3EE5AEB5 PUSH1 0xE0 SHL PUSH0 MSTORE PUSH1 0x4 PUSH0 REVERT JUMPDEST CALLVALUE PUSH2 0x67E JUMPI PUSH1 0x40 CALLDATASIZE PUSH1 0x3 NOT ADD SLT PUSH2 0x67E JUMPI PUSH1 0x1 PUSH1 0x1 PUSH1 0xA0 SHL SUB PUSH2 0x86F PUSH2 0xBE6 JUMP JUMPDEST AND PUSH0 MSTORE PUSH1 0x2 PUSH1 0x20 MSTORE PUSH1 0x40 PUSH0 KECCAK256 PUSH1 0x24 CALLDATALOAD PUSH0 MSTORE PUSH1 0x20 MSTORE PUSH1 0x20 PUSH1 0x40 PUSH0 KECCAK256 SLOAD PUSH1 0x40 MLOAD SWAP1 DUP2 MSTORE RETURN JUMPDEST CALLVALUE PUSH2 0x67E JUMPI PUSH0 CALLDATASIZE PUSH1 0x3 NOT ADD SLT PUSH2 0x67E JUMPI PUSH0 SLOAD PUSH1 0x40 MLOAD PUSH1 0x1 PUSH1 0x1 PUSH1 0xA0 SHL SUB SWAP1 SWAP2 AND DUP2 MSTORE PUSH1 0x20 SWAP1 RETURN JUMPDEST CALLVALUE PUSH2 0x67E JUMPI PUSH0 CALLDATASIZE PUSH1 0x3 NOT ADD SLT PUSH2 0x67E JUMPI PUSH2 0x8D1 PUSH2 0xCB5 JUMP JUMPDEST PUSH2 0x8D9 PUSH2 0xCDB JUMP JUMPDEST PUSH0 DUP1 SLOAD PUSH1 0xFF PUSH1 0xA0 SHL NOT AND PUSH1 0x1 PUSH1 0xA0 SHL OR SWAP1 SSTORE PUSH1 0x40 MLOAD CALLER DUP2 MSTORE PUSH32 0x62E78CEA01BEE320CD4E420270B5EA74000D11B0C9F74754EBDBFC544B05A258 SWAP1 PUSH1 0x20 SWAP1 LOG1 STOP JUMPDEST CALLVALUE PUSH2 0x67E JUMPI PUSH1 0x40 CALLDATASIZE PUSH1 0x3 NOT ADD SLT PUSH2 0x67E JUMPI PUSH2 0x932 PUSH2 0xBE6 JUMP JUMPDEST PUSH2 0x93A PUSH2 0xCB5 JUMP JUMPDEST PUSH0 DUP1 SLOAD PUSH1 0x40 MLOAD PUSH4 0xA9059CBB PUSH1 0xE0 SHL DUP2 MSTORE PUSH1 0x1 PUSH1 0x1 PUSH1 0xA0 SHL SUB SWAP2 DUP3 AND PUSH1 0x4 DUP3 ADD MSTORE PUSH1 0x24 DUP1 CALLDATALOAD SWAP1 DUP3 ADD MSTORE SWAP3 PUSH1 0x20 SWAP3 DUP5 SWAP3 PUSH1 0x44 SWAP3 DUP5 SWAP3 SWAP2 AND GAS CALL DUP1 ISZERO PUSH2 0x997 JUMPI PUSH2 0x97D JUMPI STOP JUMPDEST PUSH2 0x995 SWAP1 PUSH1 0x20 RETURNDATASIZE PUSH1 0x20 GT PUSH2 0x5EA JUMPI PUSH2 0x5DC DUP2 DUP4 PUSH2 0xC2A JUMP JUMPDEST STOP JUMPDEST PUSH1 0x40 MLOAD RETURNDATASIZE PUSH0 DUP3 RETURNDATACOPY RETURNDATASIZE SWAP1 REVERT JUMPDEST CALLVALUE PUSH2 0x67E JUMPI PUSH0 CALLDATASIZE PUSH1 0x3 NOT ADD SLT PUSH2 0x67E JUMPI PUSH2 0x9BA PUSH2 0xCB5 JUMP JUMPDEST PUSH0 DUP1 SLOAD PUSH1 0x1 PUSH1 0x1 PUSH1 0xA0 SHL SUB NOT DUP2 AND DUP3 SSTORE PUSH1 0x1 PUSH1 0x1 PUSH1 0xA0 SHL SUB AND PUSH32 0x8BE0079C531659141344CD1FD0A4F28419497F9722A3DAAFE3B4186F6B6457E0 DUP3 DUP1 LOG3 STOP JUMPDEST CALLVALUE PUSH2 0x67E JUMPI PUSH0 CALLDATASIZE PUSH1 0x3 NOT ADD SLT PUSH2 0x67E JUMPI PUSH1 0x20 PUSH1 0x40 MLOAD PUSH20 0x6131B5FAE19EA4F9D964EAC0408E4408B66337B5 DUP2 MSTORE RETURN JUMPDEST CALLVALUE PUSH2 0x67E JUMPI PUSH0 CALLDATASIZE PUSH1 0x3 NOT ADD SLT PUSH2 0x67E JUMPI PUSH1 0x20 PUSH1 0xFF PUSH0 SLOAD PUSH1 0xA0 SHR AND PUSH1 0x40 MLOAD SWAP1 ISZERO ISZERO DUP2 MSTORE RETURN JUMPDEST CALLVALUE PUSH2 0x67E JUMPI PUSH1 0x20 CALLDATASIZE PUSH1 0x3 NOT ADD SLT PUSH2 0x67E JUMPI PUSH1 0x1 PUSH1 0x1 PUSH1 0xA0 SHL SUB PUSH2 0xA6C PUSH2 0xBE6 JUMP JUMPDEST AND PUSH0 MSTORE PUSH1 0x2 PUSH1 0x20 MSTORE PUSH1 0x40 PUSH0 KECCAK256 PUSH3 0x15180 TIMESTAMP DIV PUSH0 MSTORE PUSH1 0x20 MSTORE PUSH1 0x20 PUSH1 0x40 PUSH0 KECCAK256 SLOAD PUSH1 0x40 MLOAD SWAP1 DUP2 MSTORE RETURN JUMPDEST CALLVALUE PUSH2 0x67E JUMPI PUSH0 CALLDATASIZE PUSH1 0x3 NOT ADD SLT PUSH2 0x67E JUMPI PUSH2 0xAAA PUSH2 0xCB5 JUMP JUMPDEST PUSH0 SLOAD PUSH1 0xFF DUP2 PUSH1 0xA0 SHR AND ISZERO PUSH2 0xAEF JUMPI PUSH1 0xFF PUSH1 0xA0 SHL NOT AND PUSH0 SSTORE PUSH1 0x40 MLOAD CALLER DUP2 MSTORE PUSH32 0x5DB9EE0A495BF2E6FF9C91A7834C1BA4FDD244A5E8AA4E537BD38AEAE4B073AA SWAP1 PUSH1 0x20 SWAP1 LOG1 STOP JUMPDEST PUSH4 0x8DFC202B PUSH1 0xE0 SHL PUSH0 MSTORE PUSH1 0x4 PUSH0 REVERT JUMPDEST CALLVALUE PUSH2 0x67E JUMPI PUSH0 CALLDATASIZE PUSH1 0x3 NOT ADD SLT PUSH2 0x67E JUMPI PUSH1 0x40 MLOAD PUSH32 0x0 PUSH1 0x1 PUSH1 0x1 PUSH1 0xA0 SHL SUB AND DUP2 MSTORE PUSH1 0x20 SWAP1 RETURN JUMPDEST CALLVALUE PUSH2 0x67E JUMPI PUSH1 0x20 CALLDATASIZE PUSH1 0x3 NOT ADD SLT PUSH2 0x67E JUMPI PUSH1 0x1 PUSH1 0x1 PUSH1 0xA0 SHL SUB PUSH2 0xB63 PUSH2 0xBE6 JUMP JUMPDEST AND PUSH0 MSTORE PUSH1 0x3 PUSH1 0x20 MSTORE PUSH1 0x20 PUSH1 0x40 PUSH0 KECCAK256 SLOAD PUSH1 0x40 MLOAD SWAP1 DUP2 MSTORE RETURN JUMPDEST CALLVALUE PUSH2 0x67E JUMPI PUSH1 0x20 CALLDATASIZE PUSH1 0x3 NOT ADD SLT PUSH2 0x67E JUMPI PUSH1 0x1 PUSH1 0x1 PUSH1 0xA0 SHL SUB PUSH2 0xB9B PUSH2 0xBE6 JUMP JUMPDEST AND PUSH0 MSTORE PUSH1 0x4 PUSH1 0x20 MSTORE PUSH1 0x20 PUSH1 0x40 PUSH0 KECCAK256 SLOAD PUSH1 0x40 MLOAD SWAP1 DUP2 MSTORE RETURN JUMPDEST CALLVALUE PUSH2 0x67E JUMPI PUSH1 0x20 CALLDATASIZE PUSH1 0x3 NOT ADD SLT PUSH2 0x67E JUMPI PUSH1 0x20 SWAP1 PUSH1 0x1 PUSH1 0x1 PUSH1 0xA0 SHL SUB PUSH2 0xBD6 PUSH2 0xBE6 JUMP JUMPDEST AND PUSH0 MSTORE PUSH1 0x5 DUP3 MSTORE PUSH1 0x40 PUSH0 KECCAK256 SLOAD DUP2 MSTORE RETURN JUMPDEST PUSH1 0x4 CALLDATALOAD SWAP1 PUSH1 0x1 PUSH1 0x1 PUSH1 0xA0 SHL SUB DUP3 AND DUP3 SUB PUSH2 0x67E JUMPI JUMP JUMPDEST SWAP2 DUP2 PUSH1 0x1F DUP5 ADD SLT ISZERO PUSH2 0x67E JUMPI DUP3 CALLDATALOAD SWAP2 PUSH8 0xFFFFFFFFFFFFFFFF DUP4 GT PUSH2 0x67E JUMPI PUSH1 0x20 DUP4 DUP2 DUP7 ADD SWAP6 ADD ADD GT PUSH2 0x67E JUMPI JUMP JUMPDEST SWAP1 PUSH1 0x1F DUP1 NOT SWAP2 ADD AND DUP2 ADD SWAP1 DUP2 LT PUSH8 0xFFFFFFFFFFFFFFFF DUP3 GT OR PUSH2 0xC4C JUMPI PUSH1 0x40 MSTORE JUMP JUMPDEST PUSH4 0x4E487B71 PUSH1 0xE0 SHL PUSH0 MSTORE PUSH1 0x41 PUSH1 0x4 MSTORE PUSH1 0x24 PUSH0 REVERT JUMPDEST SWAP1 DUP2 PUSH1 0x20 SWAP2 SUB SLT PUSH2 0x67E JUMPI MLOAD DUP1 ISZERO ISZERO DUP2 SUB PUSH2 0x67E JUMPI SWAP1 JUMP JUMPDEST PUSH8 0xFFFFFFFFFFFFFFFF DUP2 GT PUSH2 0xC4C JUMPI PUSH1 0x1F ADD PUSH1 0x1F NOT AND PUSH1 0x20 ADD SWAP1 JUMP JUMPDEST SWAP2 SWAP1 DUP3 ADD DUP1 SWAP3 GT PUSH2 0xCA1 JUMPI JUMP JUMPDEST PUSH4 0x4E487B71 PUSH1 0xE0 SHL PUSH0 MSTORE PUSH1 0x11 PUSH1 0x4 MSTORE PUSH1 0x24 PUSH0 REVERT JUMPDEST PUSH0 SLOAD PUSH1 0x1 PUSH1 0x1 PUSH1 0xA0 SHL SUB AND CALLER SUB PUSH2 0xCC8 JUMPI JUMP JUMPDEST PUSH4 0x118CDAA7 PUSH1 0xE0 SHL PUSH0 MSTORE CALLER PUSH1 0x4 MSTORE PUSH1 0x24 PUSH0 REVERT JUMPDEST PUSH1 0xFF PUSH0 SLOAD PUSH1 0xA0 SHR AND PUSH2 0xCE9 JUMPI JUMP JUMPDEST PUSH4 0xD93C0665 PUSH1 0xE0 SHL PUSH0 MSTORE PUSH1 0x4 PUSH0 REVERT INVALID LOG2 PUSH5 0x6970667358 0x22 SLT KECCAK256 0xFC JUMPI SWAP12 MUL CHAINID CREATE2 SWAP9 SWAP12 0xCD 0xDA PUSH13 0x4E3EDFECD8E9F88F82CC1506C2 DUP1 LOG2 0xF 0xC SSTORE 0xC4 0xD4 MSTORE PUSH5 0x736F6C6343 STOP ADDMOD 0x1E STOP CALLER "
		},
		"gasEstimates": {
			"creation": {
				"codeDepositCost": "674800",
				"executionCost": "infinite",
				"totalCost": "infinite"
			},
			"external": {
				"KYBERSWAP_ROUTER()": "312",
				"dailySpent(address,uint256)": "2739",
				"emergencyRecovery(address,uint256)": "infinite",
				"executePermitAutoBuy(address,uint256,uint256,uint8,bytes32,bytes32,bytes,string)": "infinite",
				"getDailySpent(address)": "2589",
				"likeAmount(address)": "2433",
				"owner()": "2526",
				"pause()": "29940",
				"paused()": "2410",
				"recastAmount(address)": "2403",
				"renounceOwnership()": "28231",
				"setUserLimits(address,uint256,uint256,uint256)": "71185",
				"transferOwnership(address)": "28500",
				"unpause()": "27672",
				"usdc()": "infinite",
				"userDailyLimit(address)": "2455"
			}
		},
		"methodIdentifiers": {
			"KYBERSWAP_ROUTER()": "70a48572",
			"dailySpent(address,uint256)": "9061a57f",
			"emergencyRecovery(address,uint256)": "727b7acf",
			"executePermitAutoBuy(address,uint256,uint256,uint8,bytes32,bytes32,bytes,string)": "958e7387",
			"getDailySpent(address)": "5b8c9337",
			"likeAmount(address)": "231534d7",
			"owner()": "8da5cb5b",
			"pause()": "8456cb59",
			"paused()": "5c975abb",
			"recastAmount(address)": "0247f437",
			"renounceOwnership()": "715018a6",
			"setUserLimits(address,uint256,uint256,uint256)": "d34ac1c3",
			"transferOwnership(address)": "f2fde38b",
			"unpause()": "3f4ba83a",
			"usdc()": "3e413bee",
			"userDailyLimit(address)": "3113e93c"
		}
	},
	"abi": [
		{
			"inputs": [
				{
					"internalType": "address",
					"name": "_usdc",
					"type": "address"
				},
				{
					"internalType": "address",
					"name": "owner",
					"type": "address"
				}
			],
			"stateMutability": "nonpayable",
			"type": "constructor"
		},
		{
			"inputs": [],
			"name": "EnforcedPause",
			"type": "error"
		},
		{
			"inputs": [],
			"name": "ExpectedPause",
			"type": "error"
		},
		{
			"inputs": [
				{
					"internalType": "address",
					"name": "owner",
					"type": "address"
				}
			],
			"name": "OwnableInvalidOwner",
			"type": "error"
		},
		{
			"inputs": [
				{
					"internalType": "address",
					"name": "account",
					"type": "address"
				}
			],
			"name": "OwnableUnauthorizedAccount",
			"type": "error"
		},
		{
			"inputs": [],
			"name": "ReentrancyGuardReentrantCall",
			"type": "error"
		},
		{
			"anonymous": false,
			"inputs": [
				{
					"indexed": true,
					"internalType": "address",
					"name": "previousOwner",
					"type": "address"
				},
				{
					"indexed": true,
					"internalType": "address",
					"name": "newOwner",
					"type": "address"
				}
			],
			"name": "OwnershipTransferred",
			"type": "event"
		},
		{
			"anonymous": false,
			"inputs": [
				{
					"indexed": false,
					"internalType": "address",
					"name": "account",
					"type": "address"
				}
			],
			"name": "Paused",
			"type": "event"
		},
		{
			"anonymous": false,
			"inputs": [
				{
					"indexed": true,
					"internalType": "address",
					"name": "user",
					"type": "address"
				},
				{
					"indexed": true,
					"internalType": "address",
					"name": "tokenOut",
					"type": "address"
				},
				{
					"indexed": false,
					"internalType": "uint256",
					"name": "usdcAmount",
					"type": "uint256"
				},
				{
					"indexed": false,
					"internalType": "uint256",
					"name": "tokensReceived",
					"type": "uint256"
				},
				{
					"indexed": false,
					"internalType": "string",
					"name": "actionType",
					"type": "string"
				}
			],
			"name": "PermitAutoBuyExecuted",
			"type": "event"
		},
		{
			"anonymous": false,
			"inputs": [
				{
					"indexed": false,
					"internalType": "address",
					"name": "account",
					"type": "address"
				}
			],
			"name": "Unpaused",
			"type": "event"
		},
		{
			"anonymous": false,
			"inputs": [
				{
					"indexed": true,
					"internalType": "address",
					"name": "user",
					"type": "address"
				},
				{
					"indexed": false,
					"internalType": "uint256",
					"name": "dailyLimit",
					"type": "uint256"
				},
				{
					"indexed": false,
					"internalType": "uint256",
					"name": "likeAmount",
					"type": "uint256"
				},
				{
					"indexed": false,
					"internalType": "uint256",
					"name": "recastAmount",
					"type": "uint256"
				}
			],
			"name": "UserLimitsSet",
			"type": "event"
		},
		{
			"inputs": [],
			"name": "KYBERSWAP_ROUTER",
			"outputs": [
				{
					"internalType": "address",
					"name": "",
					"type": "address"
				}
			],
			"stateMutability": "view",
			"type": "function"
		},
		{
			"inputs": [
				{
					"internalType": "address",
					"name": "",
					"type": "address"
				},
				{
					"internalType": "uint256",
					"name": "",
					"type": "uint256"
				}
			],
			"name": "dailySpent",
			"outputs": [
				{
					"internalType": "uint256",
					"name": "",
					"type": "uint256"
				}
			],
			"stateMutability": "view",
			"type": "function"
		},
		{
			"inputs": [
				{
					"internalType": "address",
					"name": "token",
					"type": "address"
				},
				{
					"internalType": "uint256",
					"name": "amount",
					"type": "uint256"
				}
			],
			"name": "emergencyRecovery",
			"outputs": [],
			"stateMutability": "nonpayable",
			"type": "function"
		},
		{
			"inputs": [
				{
					"internalType": "address",
					"name": "user",
					"type": "address"
				},
				{
					"internalType": "uint256",
					"name": "usdcAmount",
					"type": "uint256"
				},
				{
					"internalType": "uint256",
					"name": "deadline",
					"type": "uint256"
				},
				{
					"internalType": "uint8",
					"name": "v",
					"type": "uint8"
				},
				{
					"internalType": "bytes32",
					"name": "r",
					"type": "bytes32"
				},
				{
					"internalType": "bytes32",
					"name": "s",
					"type": "bytes32"
				},
				{
					"internalType": "bytes",
					"name": "swapData",
					"type": "bytes"
				},
				{
					"internalType": "string",
					"name": "actionType",
					"type": "string"
				}
			],
			"name": "executePermitAutoBuy",
			"outputs": [],
			"stateMutability": "nonpayable",
			"type": "function"
		},
		{
			"inputs": [
				{
					"internalType": "address",
					"name": "user",
					"type": "address"
				}
			],
			"name": "getDailySpent",
			"outputs": [
				{
					"internalType": "uint256",
					"name": "",
					"type": "uint256"
				}
			],
			"stateMutability": "view",
			"type": "function"
		},
		{
			"inputs": [
				{
					"internalType": "address",
					"name": "",
					"type": "address"
				}
			],
			"name": "likeAmount",
			"outputs": [
				{
					"internalType": "uint256",
					"name": "",
					"type": "uint256"
				}
			],
			"stateMutability": "view",
			"type": "function"
		},
		{
			"inputs": [],
			"name": "owner",
			"outputs": [
				{
					"internalType": "address",
					"name": "",
					"type": "address"
				}
			],
			"stateMutability": "view",
			"type": "function"
		},
		{
			"inputs": [],
			"name": "pause",
			"outputs": [],
			"stateMutability": "nonpayable",
			"type": "function"
		},
		{
			"inputs": [],
			"name": "paused",
			"outputs": [
				{
					"internalType": "bool",
					"name": "",
					"type": "bool"
				}
			],
			"stateMutability": "view",
			"type": "function"
		},
		{
			"inputs": [
				{
					"internalType": "address",
					"name": "",
					"type": "address"
				}
			],
			"name": "recastAmount",
			"outputs": [
				{
					"internalType": "uint256",
					"name": "",
					"type": "uint256"
				}
			],
			"stateMutability": "view",
			"type": "function"
		},
		{
			"inputs": [],
			"name": "renounceOwnership",
			"outputs": [],
			"stateMutability": "nonpayable",
			"type": "function"
		},
		{
			"inputs": [
				{
					"internalType": "address",
					"name": "user",
					"type": "address"
				},
				{
					"internalType": "uint256",
					"name": "dailyLimit",
					"type": "uint256"
				},
				{
					"internalType": "uint256",
					"name": "_likeAmount",
					"type": "uint256"
				},
				{
					"internalType": "uint256",
					"name": "_recastAmount",
					"type": "uint256"
				}
			],
			"name": "setUserLimits",
			"outputs": [],
			"stateMutability": "nonpayable",
			"type": "function"
		},
		{
			"inputs": [
				{
					"internalType": "address",
					"name": "newOwner",
					"type": "address"
				}
			],
			"name": "transferOwnership",
			"outputs": [],
			"stateMutability": "nonpayable",
			"type": "function"
		},
		{
			"inputs": [],
			"name": "unpause",
			"outputs": [],
			"stateMutability": "nonpayable",
			"type": "function"
		},
		{
			"inputs": [],
			"name": "usdc",
			"outputs": [
				{
					"internalType": "contract IERC20",
					"name": "",
					"type": "address"
				}
			],
			"stateMutability": "view",
			"type": "function"
		},
		{
			"inputs": [
				{
					"internalType": "address",
					"name": "",
					"type": "address"
				}
			],
			"name": "userDailyLimit",
			"outputs": [
				{
					"internalType": "uint256",
					"name": "",
					"type": "uint256"
				}
			],
			"stateMutability": "view",
			"type": "function"
		}
	]
}